1012338745STRAUSS QUINONES KENNY RAMON  208000000000002004070520101203
1012370783GOMEZ SOTO EDWARD ENRIQUE     207001000000002004070520120705
1012525090GUEDEZ GONZALEZ ABRAHAM JORGE 208000000000002004070520101203
1012612817CAMERO PADRON PEDRO CELESTINO 208003000000002004070520101203
1012940311LOPEZ ALBESIANO ORLANDO ALIRIO207002000000002004070520120705
1112974448COLMENARES AMAYA MARIA CAROLIN207000000000002004070520120705
1013078028PRATO RODRIGUEZ LEONER ASDRUBA207001000000002004070520120705
1013097256MERCADO MENDOZA ANTONIO RAMON 208001000000002004070520101203
1013152539MALUENGA DIAZ JOSE ALFREDO    207000000000002004070520120705
1013156673PEREZ RAVAGO ALEJANDRO ANTONIO207003000000002004070520120705
1013201132MOLINA BASTIDAS DIONNY YORMAN 207002000000002004070520120705
1013206338BASTIDAS MORALES CARLOS LUIS  207001000000002004070520120705
1113237472MENDEZ CONTRERAS CIRYL ENRIQUE207001000000002004070520120705
1013296656GARCIA RODRIGUEZ JUAN PABLO   207002000000002004070520120705
1013375808BERROTERAN ESCOBAR JHONY ALBER207002000000002004070520120705
1013380668OLIVO PONTE ANIBAL ALBERTO    207001000000002004070520120705
1013444740PERDIGON ORTA CARLOS UBALDO   207001000000002004070520120705
1013468262ZAMBRANO GONZALEZ JOSE HOLBERG207002000000002004070520120705
1113474625GODOY PERNIA ADOLFO JOSE      207000000000002004070520120705
1013528949LUCAS UTRERA WILMER TEODOLINDO207001000000002004070520130705
1113567553HURTADO GUANIPA MIGUEL ANGEL  208000000000002004070520110705
1013723936GALUE SEGOVIA EDUARDO ANTONIO 207000000000002004070520120705
1013735538MIJARES PEREIRA RICHARD ANTONI207000000000002004070520120705
1013777696GIL DURAN RINA VANESSA        207000000000002004070520120705
1013780693GOMEZ GARCIA  MARCO EMIGDIO   207001000000002004070520120705
1013792886VASQUEZ GOMEZ LEONARDO FABIO  207000000000002004070520130705
1013810402RODRIGUEZ CHAVEZ LUIS MANUEL  207001000000002004070520120705
1013834574OSORIO LEON DONNELL GERARDO   207001000000002004070520120705
1013844466PALENCIA BASTIDAS EDWIN JOSE  207002000000002004070520120705
1013849140VILERA  FRANKLIN JOSE         208000000000002004070520101203
1013849929BLANCHARD SISO JOSE RAFAEL    207001000000002004070520120705
1013870078CAMACHO YEPEZ OMAR ANTONIO    207000000000002004070520120705
1013884687PEREZ LOPEZ JOSE ISAIAZ       208001000000002004070520101203
1013908311BLANCO PENUELA JOSE FELIX     207004000000002004070520130705
1013922670ROJAS MORENO RIDER GILBERTO   207001000000002004070520120705
1013941515PEREIRA BRITO ARGENIS JOSE    208001000000002004070520101203
1013972783QUIROZ VASQUEZ FRANK RUBEN    207002000000002004070520120705
1013977125MOLINA FERNANDEZ ANTONIO JOSE 207002000000002004070520120705
1013990548DELLAN SALAZAR HOWHER LEONARDO207000000000002004070520120705
1013990583GUTIRREZ BARRIOS RURIC FERNAND207002000000002004070520120705
1014024455GUEDEZ FARACO ROSELIANO TOMAS 208002000000002004070520110705
1014025681QUINONES PEREZ CARLOS ENRIQUE 207001000000002004070520120705
1014029219RAMOS JIMENEZ MAHLON DAVID    208000000000002004070520101203
1014033014FERNANDEZ RUIZ JUAN JOSE      207002000000002004070520130705
1014103832HERNANDEZ FERNANDEZ DENIS JOSE207002000000002004070520120705
1114150333BENCOMO NOGUERA MARGLAD       207001000000002004070520120705
1014153162OBREGON RODRIGUEZ DIXON ENRIQU207002000000002004070520120705
1014161069MENA SANCHEZ ROOX ALEX        207001000000002004070520120705
1014183625HERRERA GOMEZ CARLOS JOSE     207001000000002004070520120705
1014191856NAVAS SALAS RENNY UBALDO      208001000000002004070520101203
1014196955BECERRA NAVARRO HOMERO        207002000000002004070520120705
1014231099GUTIERREZ CASTILLO WILFREDO EN208002000000002004070520110705
1014264788VIVAS  JAVIER ENRIQUE         207000000000002004070520130705
1014280426URDANETA PEREZ EDRIN ANTONIO  209000080000002004070520040705
1014292802FERNANDEZ SIVIRA ANTONIO JOSE 208001000000002004070520101203
1014299053MORENO MACHADO ANGELICA MARIA 208001000000002004070520101203
1014309745SANCHEZ BENITES CARLOS EDUARDO207001000000002004070520120705
1014355808MORENO MUNOZ FRANCISCO IGNACIO207000000000002004070520120705
1014368400HERNANDEZ ARAPE HECTOR JOSE   208000000000002004070520110705
1114394883MORLES REQUENA JEFFERSON RAUL 207001000000002004070520130705
1114395358TORTOLERO HERNANDEZ MAIRANGEL 208000000000002004070520101203
1014400642RONDON PUENTE GREGORYT JOSE   207001000000002004070520120705
1014443844COROBO SEGOVIA EDWARD RAMON   207000000000002004070520120705
1014447858GARCIA  ALEXANDER AGUSTIN     208003000000002004070520101203
1014470353RODRIGUEZ ZAPATA OSCAR ALEXIS 208003000000002004070520101203
1014492062RANGEL GARCIA JHACSON GREGORIO207003000000002004070520130705
1014503963RODRIGUEZ PULIDO JESUS ALBERTO207001000000002004070520120705
1014508114FEBRES AILLON PEDRO ALONZO    207002000000002004070520120705
1014515661CHAVEZ ROBLES JOSE ALEXANDER  207001000000002004070520120705
1014519593MARQUEZ BARRIOS JAIME ENRIQUE 207001000000002004070520120705
1014563953BUENO DORANTE REGULO ANTONIO  208000000000002004070520101203
1114564265SANCHEZ RODRIGUEZ JESUCITA ROS208001000000002004070520101203
1014572516GONZALEZ BUSTILLOS JESUS RAFAE207004000000002004070520120705
1014583732MARTINEZ ZAMBRANO JHONHARRYS H207003000000002004070520120705
1014592651VARGAS QUINTANA RICHARD ALEXAN207002000000002004070520130705
1014597652LEMUS GRANADILLO LUIS ALEJANDR207002000000002004070520120705
1014660171MARQUEZ ROJAS LUIS JESUS      207001000000002004070520120705
1014662651ARELLANO VELASQUEZ JOSE ALEXAN207000000000002004070520120705
1014664525FLORES SEVERYN MARCOS GABRIEL 208001000000002004070520101203
1014664551RIVERA GARCIA LUIS ALBERTO    208001000000002004070520101203
1014672445DIAZ LEDEZMA MARCO AURELIO    207001000000002004070520130705
1014675425ARAUJO IZARRA NELSON WINTILO  207001000000002004070520120705
1014691642RAMOS TORRES JOSE FRANCISCO   207001000000002004070520120705
1014706939GARCIA  MAYRA RAFAELA         208000000000002004070520101203
1014729091INOJOSA BOLIVAR DOUGLAS BRAULI207002000000002004070520120705
1014729561SANCHEZ PEREZ JOSE GABRIEL    207000000000002004070520130705
1014740115MORALES FLORES WILLIE MAURICIO208002000000002004070520101203
1014742519BLANCO ESCALANTE JULIO CESAR  207000000000002004070520130705
1014750481ROJAS MOLLEDA MOISES RICARDO  207001000000002004070520120705
1114774938RODRIGUEZ MEZA JOSMAN JESUS   208001000000002004070520101203
1014776567ROSO ROMERO CARLOS ENRIQUE    207001000000002004070520120705
1014783472VERA DUARTE JOSE GREGORIO     208001000000002004070520101203
1014784209MOLINA ACERO WILLIAM ARMANDO  207001000000002004070520120705
1014785629RUIZ VERGEL LUIS ENRIQUE      207001000000002004070520120705
1014786084SEQUERA RAMIREZ JACINTO JOSE  207000000000002004070520130705
1014789723GUZMAN CASTELLANOS NELSON ALEX207000000000002004070520120705
1014791375MEDINA MORA JESUS DANIEL      207001000000002004070520120705
1014860310CARRILLO NARANJO ANTONIO JOSE 207001000000002004070520120705
1014902646VASQUEZ ANTEQUERA JOSE ALEXIS 208002000000002004070520110705
1014916300CASTILLO SANCHEZ JULIO CESAR  207001000000002004070520120705
1014919727VIZCAYA GOMEZ LUIS JOSE       207002000000002004070520130705
1014941934MOLINA SANCHEZ TAYLOR GERARDO 208001000000002004070520110705
1014942633CABALLERO  CESAR AUGUSTO      207001000000002004070520120705
1014954917MONGES CONTRERAS ADER JESUS   207000000000002004070520120705
1014955763PEREZ MORENO MIGUEL ANGEL     207002000000002004070520120705
1014958156PALACIOS  NESTOR DAVID        208000000000002004070520101203
1014958387GALLARDO BRAVO DEIVI EDUARDO  207003000000002004070520120705
1014959754OCA HERNANDEZ KABIR ANTONIO   208001000000002004070520101203
1014975676TORRES CARDENAS ALFONSO JOSE  207002000000002004070520120705
1014987110ALZOLAY DANGLART HENRY JOSE   207001000000002004070520130705
1015028553VILLA PORRAS HENGELBERTH JESUS207000000000002004070520120705
1015039627MONTILLA RIOS LENNY YOHANA    208000000000002004070520101203
1015040853GUZMAN JIMENEZ ALEJANDRO JESUS207001000000002004070520120705
1015047218DIAMON ARMAS CARLOS JOSE      208002000000002004070520101203
1015048611MATA RODRIGUEZ YOY HERMINIA   208000000000002004070520101203
1015082475VILLALOBOS DELGADO JAVIER ALEX207001000000002004070520120705
1015100154ABARCA MEDINA RAFAEL DANIEL   207001000000002004070520120705
1015108846CHAVEZ FERNANDEZ REINALDO SIMO207000000000002004070520120705
1015118620TORRES PEREZ DANIEL RAMON     207000000000002004070520120705
1015123893SOLANO CARABALLO YUPANKI JOSE 208002000000002004070520090705
1015130301DOMINGUEZ NOGUERA RAYNER ENRIQ208001000000002004070520101203
1015152723VILLAREAL BASTARDO RAFAEL EDUA207001000000002004070520120705
1015155487RUIZ MEDINA ELIUD REDGRAVE    208003000000002004070520110705
1015175094RENDON DUGARTE RAUL JOSE      207000000000002004070520120705
1015181631CASTRO ORTEGA ALDEMARO JOSE   208000000000002004070520101203
1015183542RODRIGUEZ MENDOZA FRANCISCO JO207000000000002004070520120705
1015191860JIMENEZ PALOMO YASMIL YSAURA  208004000000002004070520101203
1115207927ANZOLA ACOSTA MANUEL DOMINGO  207000000000002004070520120705
1015232350QUINTERO ROSALES ALEJANDRO JOS207000000000002004070520120705
1015232778RONDON ANSELMI CARLOS LUIS    207000000000002004070520120705
1015234638DURAN RAMIREZ DANNY JOSE      207000000000002004070520130705
1015252466ARO COSTA ALONSO ENRIQUE      208001000000002004070520101203
1015258576BASANTES MARQUEZ JOSE GREGORIO207002000000002004070520120705
1015265239MAMBEL RODRIGUEZ ALEXANDER RAF207002000000002004070520120705
1015284146VIVAS MARTINEZ MIGUEL ANEL    207000000000002004070520120705
1015298491HERNANDEZ CAMACHO JESUS JOEL  208003000000002004070520101203
1015302532ZAMBRANO DIAZ JUAN LUIS       207001000000002004070520120705
1015316645GUANARE MORA RAFAEL ANTONIO   207001000000002004070520120705
1015338015MACHADO INFANTE CARLOS EDUARDO207001000000002004070520120705
1115342062REYES GARCIA LUIS DAVID       207000000000002004070520120705
1015378674DE ABREU GOMEZ OMAR CLEMENTE  207001000000002004070520120705
1015391737RINCON FINOL ROIDEE ENRIQUE   207000000000002004070520120705
1015392839BARRIOS RANUAREZ CARLOS LUIS  207001000000002004070520120705
1015398944FERNANDEZ RUMBOS GRICELIO JESU207000000000002004070520130705
1015425129HERNANDEZ ALVAREZ JOSE DARIO  207000000000002004070520120705
1015438161YANES CUBEROS ISRAEL SADAT    207002000000002004070520120705
1015448828LANDAETA GONZALEZ VICTOR ANTON208001000000002004070520101203
1015455252DIAZ RODRIGUEZ WILMER ISRAEL  207001000000002004070520120705
1015456202CARRENO SANCHEZ DIEGO RAFAEL  208002000000002004070520101203
1015465509CHACON  ANGEL ALBERTO         207002000000002004070520120705
1015466152HENRIQUEZ ESPINA LUIS RAFAEL  207002000000002004070520120705
1015480691GUIRE ZAMORA JULIO ANTONIO    207002000000002004070520120705
1015485376GONZALEZ SILVA ANGEL GERARDO  208002000000002004070520101203
1015485521MENDOZA LOPEZ YORMAN FERNANDO 207003000000002004070520130705
1015494035OCHOA PINTO ELVIS GABRIEL     208002000000002004070520101203
1015498432BUENO BUCARITO OSDANNY JOSE   207001000000002004070520120705
1015501018MORA MARQUEZ JESUS ALBERTO    207000000000002004070520120705
1015505371GONZALEZ SOSA ALEXANDER GUILLE207000000000002004070520120705
1015507287GONZALEZ CORVO GUSTAVO ALBERTO207000000000002004070520130705
1015528890JIMENEZ MENDEZ JULIO CESAR    207000000000002004070520120705
1015531452ALTUVE RAMIREZ RAUL ERNESTO   207000000000002004070520120705
1015533689RODRIGUEZ REINA LUIS ARGENIS  207001000000002004070520120705
1015537762REYES RANGEL LUIS MANUEL      207002000000002004070520120705
1015540477DIAZ ONTIVEROS WILFREDO ANTONI207002000000002004070520120705
1015573065ARRIETA CHACIN DAVID ALEXANDER207000000000002004070520120705
1015582581PEREIRA LABRADOR VICTOR ASDRUB207000000000002004070520130705
1015586061SAAVEDRA GUZMAN SERGIO ANTONIO207000000000002004070520120705
1015588094GODOY GONZALEZ DIEGO JOSE     207001000000002004070520120705
1015588724GONZALEZ CASTELLANOS KEIMER NA208001000000002004070520101203
1015589378CHAPARRO GODOY RONALD JOSE    207000000000002004070520120705
1015601348MEDINA ARVELAIZ HENRY ENRIQUE 207000000000002004070520120705
1015609902MARVAL FLORES LUIS JOSE       207001000000002004070520120705
1015612824BULLONES LINARES LEONARDO JOSE207000000000002004070520130705
1015614841NUNEZ BLANCO KENNYS RAUL      207003000000002004070520120705
1015620987KONRAD DAVILA ALBERTO CONSTANT207000000000002004070520120705
1115636986CESAR SIERO GUILLERMO ENRIQUE 207000000000002004070520120705
1015666254PERALTA AVILA ABRAHAM ENRIQUE 207002000000002004070520120705
1015715041SEQUERA AVILA JULIO EDGARDO   207000000000002004070520120705
1015734228TOVAR HERNANDEZ NELSON ALFREDO208001000000002004070520101203
1015739690CABRERA MARCANO JESUS RAFAEL  207002000000002004070520120705
1015758648REYES VILLAFUERTE EDGAR RAMON 207000000000002004070520130705
1015760872CHACON SANCHEZ JOSE HUMBERTO  207000000000002004070520120705
1015761642PORRAS GAMEZ HECTOR ALBERTO   207000000000002004070520120705
1015766118CELIS BRICEN  MARCO ANTONIO   207000000000002004070520120705
1115780444PENATE SULVARAN PEDRO ENRIQUE 207000000000002004070520120705
1015783857ACEVEDO ROSALES JOSE MANUEL   207002000000002004070520120705
1015807514BRACHO PEROZO NELSON EDUARDO  208000000000002004070520090705
1015845433GONZALEZ LISTA LEMEN ALEXIS   207003000000002004070520120705
1015865807BUSTAMANTE LOPEZ JOSE MANUEL  207003000000002004070520120705
1015892806CACERES VALECILLOS GIPSY ELINN208002000000002004070520101203
1015930303JORDAN ARVELAEZ JEANCARLOS JOS207002000000002004070520130705
1015963173DIAZ PEREZ CARLOS ASDRUBAL    207000000000002004070520120705
1015966530CASTILLO GONZALEZ WILLIAMS JOS208000020000002004070520080705
1015992093AVILA PEREZ VICTOR ELIO       208002000000002004070520101203
1016003603LAMEDA NIETO FRANCISCO JAVIER 207001000000002004070520120705
1016011016ARCIA  JESUS MANUEL           208002040000002004070520070705
1016011584FIGUEROA VILLEGAS JESUS ALBERT207001000000002004070520120705
1016072658ORDONEZ MENDEZ JEAN CARLOS    208002000000002004070520101203
1016076177PAREDES NAVAS ADELSO RAFAEL   208002000000002004070520101203
1016092897NUNEZ ASTUDILLO MARISELA MARGA208001000000002004070520101203
1116095165FLORES ECHENIQUE LEONARDO ALBE208001000000002004070520110705
1016112258DURAN GARABAN SIMON ELADIO    207000000000002004070520120705
1116128116HERNANDEZ ANGULO NORALLA DEONI208000000000002004070520101203
1016128139LIRA VARELA MARCO ANTONIO     207000000000002004070520120705
1016225518CARMONA  JUAN ALEJANDRO       207002000000002004070520120705
1016249183MORENO SANCHEZ ANDRES ERNESTO 207001000000002004070520120705
1016263930MONTILLA ROMERO OSCAR JOSE    208002000000002004070520101203
1116285847MENDEZ ORTIZ MOISES JESUS     207001000000002004070520120705
1016305029MORENO VIELMA SANDY SAMUEL    208000000000002004070520101203
1016305261CONTRERAS  JOSE LUIS          207001000000002004070520120705
1016336353PADRINO FERNANDEZ EDUARDO JOSE207000000000002004070520120705
1016340998GAMEZ SILVA LUIS FELIPE       207001000000002004070520120705
1016343757SALAS RIVAS MARLON IVAN       207001000000002004070520120705
1016383155MEJICANO MONTILLA GLEN JESUS  208001000000002004070520101203
1016384798MITCHELL MONTENEGRO TERRY ALEX207002000000002004070520120705
1016418637ANTEQUERA  IRISMAR CAROLINA   208001000000002004070520101203
1016429982ROJAS MARTINEZ FRANCISCO ANTON207002000000002004070520120705
1016443044PAREDES ZERPA DOREIVIS LISNAY 208001000000002004070520101203
1016551634VILORIA GUERRERO EDINSON AMAUR637001000000002004070120130705
1016579825PEREZ CUAURO YENIS CARINA     208002000000002004070520101203
1017102447CASTILLO ROMERO LEONARDO JOSE 207003000000002004070520120705
1017169377TABARES ACEBEDO JACKELIN      208002000000002004070520101203
1017379999ALEJOS CARRASCO YSMIR ISABEL  208002000000002004070520101203
1113349831MENDEZ SALCEDO JEAN CARLO     207001000000002004070520120705
1014687300FLORES PALACIOS GUSTAVO MANUEL637003000000002004070120130705
1115594763GUTIERREZ ZAMBRANO JOHNDER GER207001000000002004070520120705
1017278344ROSENDO MENDOZA LEONEL ANTONIO637000000000002004070120130705
1012533632FRIAS DUARTE CARLOS JOSE      638001000000002004070120080705
1012972073CHACON RUEDA EVERTH ANTONIO   637001000000002004070120130705
1013062462MORENO  EDGAR ALEXANDER       637004000000002004070520130705
1013378943NUNEZ GODOY IGOR JOSE         637001000000002004070120130705
1013493447OCHOA APONTE GERSON ALEXANDER 637001000000002004070120130705
1013626684TABERA RODRIGUEZ JOSE FELIX   637001000000002004070120130705
1013701342SEQUEDA AGUIRRE SERGIO NICOLAS637001000000002004070120130705
1013745428ZERPA ABREU NARDY JOSE        637003000000002004070120130705
1013761249PACHECO DAZA GIOVANNY ALEXIS  637001000000002004070120130705
1013780183GALLARDO SIERRA ANTONIO JOSE  637001000000002004080120130705
1013796595SILVA OVIEDO PEDRO JOSE       638000000000002004070120080705
1013806673SERRANO ALVARADO WILFREDO ANTO637002000000002004070120130705
1013862419RUZA VERA YOHENNYS AMERICO    637003000000002004070120130705
1013870103CORONA PADRON ROY DAY         637002000000002004070120130705
1013874796HERRADA  ERGUIN JESUS         638000000000002004070120080705
1113892713FLORES PENA JOSE ANTONIO      638002000000002004070120080705
1013902753CHIRINO GUTIERREZ JUAN CARLOS 637002000000002004070120130705
1013928188ARAQUE MEDINA RONALD ANTHONY  638001000000002004070120080705
1113929562CAICEDO PLATA GIOVANNY ELIECER637001000000002004070120130705
1013938430DELGADO COLINA DENNY JOSE     637000000000002004070120130705
1013967637MARQUEZ VERA EDGAR EDUARDO    637001000000002004070120130705
1014005546OJEDA  NOE MANUEL             637002000000002004070120130705
1014086360PETIT HERNANDEZ MAXIMO JESUS  637001000000002004070120130705
1014086849COOZ LUGO EMIR JOSE           638002000000002004070120080705
1014232276RAMOS  MAURICIO RAFAEL        637000000000002004070120130705
1014313961CORREA CORDERO ROBERT         637004000000002004070120130705
1014418987BASTIDAS CHACON JOHAN CARLOS  637001000000002004070120130705
1014419010ALEMAN BOADAS ELIO ALEXANDER  637001000000002004070120130705
1014429507ACOSTA SOLORZANO ALEXIS RAFAEL637002000000002004070120130705
1014469562ALONSO ROJAS DONATO ARNALDO   638002000000002004070120080705
1014491417LAVINZ BANON DANIEL SANTIAGO  637002000000002004070120130705
1014503909GARCIA MONCADA JOSE OVIDIO    637002000000002004070120130705
1014521890HERRERA  CAMILO ALONZO        638000000000002004070120080705
1014576924GONZALEZ ALVARADO JOSE GERARDO637002000000002004070120130705
1014577705MEDINA  ELIMIR BERENICE       637000000000002004070120130705
1114627541CARAPAICA CASTELLANOS CANDY YU637001000000002004070120130705
1014639642MONTENEGRO FANEITE DEIVID ERIK638001000000002004070120080705
1014664520ALVAREZ NIEVES DENIS JESUS    637003000000002004070120130705
1014664672DOUBRONT LOPEZ ORLANDO JAVIER 637003000000002004070120130705
1014664928RIVAS CASTILLO MARTIN ALBERTO 638000000000002004070120080705
1014671176JIMENEZ SANCHEZ CESAR ENRIQUE 637001000000002004070120130705
1014706863AGUIRRE  FREDERY ANTONIO      638004000000002004070120080705
1014728073PINERO ANTUNEZ EDGAR JOSE     637001000000002004070120130705
1014732753BRICENO VASQUEZ LUIS ENRIQUE  638002000000002004070120080705
1014741240GALINDEZ FONTECHA OBDULIO DANI638003000000002004070120080705
1014767959LOPEZ  GERMAN JOSE            637002000000002004070120130705
1014779300DICK ROMERO MANZUR ALEJANDRO  638001000000002004070120080705
1114790480MEDINA LANDIN DONNY JOSE      637000000000002004070120130705
1014798310CAMACHO TORRES MANUEL ANTONIO 638001000000002004070120080705
1014829079TOVAR GAMARRA JOSE LUIS       637001000000002004070120130705
1014835359BETANCOURT HERNANDEZ JORGE LUI637001000000002004070120130705
1014860178BRETO ROMERO OSCAR JESUS      638000000000002004070120080705
1014928314TORI MATHEUS LEONARDO JOSE    637001000000002004070120130705
1014995238RODRIGUEZ DE LA CRUZ JUAN JOSE638002000000002004070120080705
1015003305PERNALETE ANZOLA RICHARD LEONA638001000000002004070120090705
1015023726VALENZUELA MORILLO RAUL FERNAN637002000000002004070120130705
1015034731LUGO  LUIS ALBERTO            637002000000002004070120130705
1015041620BALAJO  JOSE DEL CARMEN       637002000000002004070120130705
1015041980YANSE  YORMAN JESUS           637001000000002004070120130705
1015046725ARJONA  EDUARDO JOSE          637002000000002004070120130705
1015077392BRAVO AREVALO GUSTAVO ADOLFO  637001000000002004070120130705
1015079838GUERRERO GARCIA DILBER ALEJAND638003000000002004070120080705
1015086328ALCANTARA CARRASQUEL LUIS FRAN637001000000002004070120130705
1015124945SOTO VILLALOBOS ORLANDI FRANCI637001000000002004070120130705
1015130772CASTILLO ACERO EDGAR ALEXANDER637002000000002004070120130705
1015160320PIMENTEL FERNANDEZ RAUL AUGUST637001000000002004070120130705
1015173191VALERA VALERA ALEXANDER DE JES637001000000002004070120130705
1015210746MONASTERIO  CARLOS ALCIVIADES 638002000000002004070120080705
1015220380OLIVARES TORREALBA JOSE JACINT637000000000002004050120130705
1015269328MARCHAN MARCHAN FELIX JOSE    637002000000002004070120130705
1015275624VILLAMIZAR ORIQUIN CARLOS JAVI637002000000002004070120130705
1015313710DI PAOLA  DEIVY JUNIOR        637002000000002004070120130705
1015325121GOMEZ ROA YONAR ALEJANDRO     637001000000002004070120130705
1015332599SARMIENTO PEREZ RAMON DE JESUS637000000000002004070120130705
1015338416AGUILAR JIMENEZ JOSE MANUEL   637005000000002004070120130705
1015339353ALVAREZ FIGUEROA YORMAN JOSE  639003000000002004070120040705
1015365526BALCAZAR DELPINO PEDRO JOEL   637001000000002004070120130705
1015380216SUAREZ  JOSE DANIEL           637003000000002004070120130705
1015397279LOPEZ RAMIREZ JOSE            637002000000002004070120130705
1015435012PEREZ ALARCON LUIS FERNANDO   637001000000002004070120130705
1015452757LANDAETA ARENAS ALEXANDER RAFA638002000000002004070120080705
1015459161JIMENEZ MARTINEZ JOSUE OTONIEL638000000000002004070120080705
1015470097PERALES MOGOLLON PLASIDO RICAR638002000000002004070120080705
1015473251HERNANDEZ GUZMAN NESTOR ALEJAN637000000000002004070120130705
1015480883SALAZAR URDANETA JAIME RODOLFO637005000000002004070120130705
1015484093NAVA RIVERO MARCOS CELEDONIO  638002000000002004070120080705
1015486788LAYA  ANIBAL GABRIEL          637002000000002004070120130705
1115489778CORREA URBANO ALEXIS AUGUSTO  637002000000002004070120130705
1015495434SANTANA ROJAS JUAN CARLOS     637003000000002004070120130705
1015512238REYES ACOSTA RAFAEL HUMBERTO  637000000000002004070120130705
1015528617MARQUEZ ULLOA MANAURE YSARAXHA638000000000002004070120080705
1015533592CAMACHO CROQUER GUILLERMO ALFR637002000000002004070120130705
1015538663LIZARAZO PATINO EDGAR JOSE    638002000000002004070120090705
1015549004FIGUEROA  DEIVID JOSE         637002000000002004070120130705
1015567086ALVAREZ MEZA FABIAN ALFONSO   637000000000002004070120130705
1015610843GOMEZ AREVALO HECTOR BAUTISTA 638001000000002004070120090705
1015611844HIDALGO ACACIO PABLO VIDAL    637002000000002004070120130705
1015612780RODRIGUEZ COLMENARES ABRAHAN J637001000000002004070120130705
1015647334VEITIA SANOJA LEONARDO MANUEL 639004000000002004070120040705
1015648461CORTEZ RODRIGUEZ RONNY ARSENIO638001000000002004070120080705
1015651612LICON GARCIA LEYCESTER DAVID  637001000000002004070120130705
1015651798VELANDIA  MARYURY ALEJANDRA   637001000000002004070120130705
1015655973MEDINA SANCHEZ JOSE ENMANUEL  638003000000002004070120080705
1015680930AGUIRRE COLMENARES FELIPE ANTO638000000000002004070120080705
1015714307COLINA ACOSTA WILSON JOSE     637002000000002004070120130705
1015729085LOBATON GARCIA GUDELIS ENRIQUE637003000000002004070120130705
1115729968PINEDA REMOLINA BLADIMIR ORLAN638001000000002004070120080705
1015733499ALVAREZ ROMAN YOHAMNIE RAFAEL 638001000000002004070120080705
1015734838APONTE MARTINEZ JOAN ALBERTO  637000000000002004070120130705
1015735967ELIZONDO SANDOVAL ENGEL RAFAEL637001000000002004070120130705
1015738710AGUIAR TINOCO NESTOR DANIEL   638003000000002004070120080705
1015784388MORA SANCHEZ JOHN CARLOS      637003000000002004070120130705
1015786038MORLES GARCIA RIGOBERTO JOSE  637003000000002004070120130705
1015800831NAVARRO  DANGER RAFAEL        638001000000002004070120090705
1015823302HERRERA GAMEZ ALVARO JOSE     637001000000002004070120130705
1015847910CAMACHO CARVAJAL ANGEL DAVID  638001000000002004070120080705
1015855997FEREIRA OCHOA ENDIS DE JESUS  638002000000002004070120080705
1015856762DUQUE VILLAMIZAR LUIS ENRIQUE 637000000000002004070120130705
1015858054BONILLA VIVAS SERGIO IVAN     638003000000002004070120080705
1015899578VILLEGAS PARRA SAUL JESUS     638003000000002004070120080705
1015961686CANAS PENA ROMEL ROLANDO      637004000000002004070120130705
1015991953MIRELLES ARROYO LUIS ESTEBAN  637000000000002004070120130705
1015993260CASTELLANOS PONCIO WILLIAM ALF638003000000002004070120090705
1015997378CASTRO TORREALBA OMAR ALONSO  638001000000002004070120090705
1016010691BOGARIN DIAZ RICHARD MIGUEL   637001000000002004070120130705
1016011785CRESPO MAESTRE CARLOS ALFREDO 637003000000002004070120130705
1016012186GUTIERREZ  ORLANDO JOSE       637001000000002004070120130705
1016015068VARGAS CADENAS JACKSANY ARTURO637003000000002004070120130705
1016046464GARCIA JAIMES RAMON ANTONIO   638002000000002004070120080705
1016056509BOYER BETANCOURT EDUARDO LEONI638004000000002004070120080705
1016078932BARRIOS RIERA ALEXIS RAFAEL   637000000000002004070120130705
1016101874ALAYON SARRAMERA JACKSON JESUS637000000000002004070120130705
1016111249MARTINEZ FABIANI DANNY JOSE   638001000000002004070120090705
1016137260PEREZ ALVAREZ CARLOS LUIS     637003000000002004070120130705
1016138559ORELLANA BRACAMONTE FEDERICO J637002000000002004070120130705
1016142495MARIN VERA ARGENIS RAFAEL     637001000000002004070120130705
1016155454CRABO HURTADO JHON ALEXANDER  637002000000002004070120130705
1116192186NAVARRO QUILIMACO NELSON ENRIQ637000000000002004070120130705
1016209551ROJAS CARRILLO ALEXIS MANUEL  638000000000002004070120080705
1016217010MONZON NIEVES DEGNIS ALFREDO  637001000000002004070120130705
1016228771GUERRERO GARZON ANDERSON LENIN638003000000002004070120080705
1016232395FIGUEROA  JOSE GREGORIO       637001000000002004070120130705
1016269165GRATEROL VILLEGAS LEANDRO ANTO637002000000002004070120130705
1016285322RODRIGUEZ OSORIO ALEXANDER ADO638000000000002004070120080705
1016292852FLORES CORONEL VICTOR MIGUEL  637001000000002004070120130705
1016307028CALDERON  JESUS ALEXANDER     637000000000002004070120130705
1016308121TERAN DIAZ EDGAR ARMANDO      638003000000002004070120090705
1016325373RUIZ GUIPE HECTOR DE JESUS    637004000000002004070120130705
1016338453NAVARRO FUENTES KEGNI RAFAEL  637001000000002004070120130705
1016344285KRISZAK ALMEIDA JOSE RENE     637000000000002004070120130705
1016344937RAGA HERNANDEZ JAVIER ENRIQUE 637000000000002004070120130705
1016345338MARTINEZ RATIA NAIN SAMIR     637001000000002004070120130705
1016346445BARCENAS TOVAR ALBERT JOEL    637001000000002004070120130705
1016405084RENGIFO ROBLES ANGEL EDUARDO  637001000000002004070120130705
1016408965FUENTES FIGUEROA YERICSON ARCA637002000000002004070120130705
1016414674FALCON PEROZA NORBERTO JOSE   637000000000002004070120130705
1016415360QUINONES BERMUDEZ YOEMBER JOSE637003000000002004070120130705
1016432531DUARTE PALACIOS HEUDEE MANUEL 637002000000002004070120130705
1016437228GONZALEZ REYES HECTOR ELEAZAR 638001000000002004070120080705
1016450170GONZALEZ SANZ ALEXANDER YSABEL638001000000002004070120080705
1016455603GUERRERO ORDONEZ MOISES RAMON 638000000000002004070120080705
1016511536SULBARAN  JOSE ALEXANDER      638003000000002004070120080705
1016513574CAMACHO FARFAN NELSON JESUS   637002000000002004070120130705
1016520711UGARTE ROMERO DANILO FEDERICO 637001000000002004070120130705
1016537098ALVARADO MOLEIRO YONATHAN ALBE637002000000002004070120130705
1016560605BOSCAN HERNANDEZ JOSE DAVID   637002000000002004070120130705
1016641306AGUERO ROJAS DANIEL ALEXANDER 637001000000002004070120130705
1016655363RANGEL MARQUEZ DAVID DEL CARME637000000000002004070120130705
1016668642PEREZ MIJARES OSCAR ENRIQUE   638002000000002004070120090705
1016680700URDANETA ZANABRIA JAMAN JARVIS637003000000002004070120130705
1016750815PENA GORDILLO DELVIS GREGORIO 637000000000002004070120130705
1016760649DELGADO RAMIREZ YAMIL MARCIAL 637001000000002004070120130705
1016763547CONDE OLIVAR JOSE LUIS        637001000000002004070120130705
1016824683VILLEGAS RODRIGUEZ YEINISON AL637001000000002004070120130705
1016873660MARTINEZ MENDEZ LEWIS ALBERTO 637002000000002004050120130705
1016974793GONZALEZ ESCALONA EFREN ANTONI638001000000002004070120080705
1016976028PADILLA UVIEDO JUAN CARLOS    637002000000002004070120130705
1016980848RODRIGUEZ SILVA ENYER JOSE    637000000000002004070120130705
1016983079GUERRERO PEREZ ANGEL ALEXANDER637001000000002004070120130705
1017000338TORREALBA  HECTOR NICOLAS     637001000000002004070120130705
1017030068MENDOZA APONTE FRANKLIN JAVIER638003000000002004070120080705
1117044988MORGADO PEREZ JESUS ALFONSO   637001000000002004070120130705
1017051291MARQUEZ MAYA KERVIN JOSE      637000000000002004070120130705
1017052897REQUENA RIVAS YONATHAN MARVIN 637003000000002004070120130705
1017104967QUERALES  RUBEN DARIO         637001000000002004070120130705
1017194903ESCOBAR GARCIA EDUARDO JOSE   637001000000002004070120130705
1017207439LOPEZ MOLINA FRANKLIN JOSE    637001000000002004070120130705
1017219522SANCHEZ HERNANDEZ GERSON ANTON637002000000002004070120130705
1017228082JIMENEZ RODRIGUEZ JAIRO DAVID 637001000000002004070120130705
1017230566LINARES RUBIO SIGFRIDO JOSE   637002000000002004070120130705
1017245576TORRES PACHECO ARMANDO ANTONIO638002000000002004070120080705
1017250421ALMARZA COLINA PABLO JOSE     638001000000002004070120080705
1017251840SEIJAS SARRIA JOSE RICARDO    638000000000002004070120080705
1017271769MONTES RODRIGUEZ ELVYS ANTONIO637001000000002004070120130705
1017282564RIVAS ROJAS ALVARO MIGUEL     637002000000002004070120130705
1017319677MENDOZA LINARES WILLIAN DAVID 637003000000002004070120130705
1017366736PINTO CONTRERAS AARON LEVI    637001000000002004070120130705
1017367772ARCHILA PIRTO JOSE ENRIQUE    637002000000002004070120130705
1017491157FLOREZ HORMIGA YEAN CARLOS    637001000000002004070120130705
1017522552MONTES MARQUEZ ELMER EMILIO   637003000000002004070120130705
1017568438CAMACHO ZAMBRANO JIKLEZ RAMON 637002000000002004070120130705
1017575108PIRE LOBATON JOSE ENRIQUE     637001000000002004070120130705
1017577132PENA CASTILLO JULIO CESAR     637002000000002004070120130705
1017649842PEROZO BRITO MIGUEL ANGEL     637002000000002004070120130705
1017656448CEDENO  ERIXON JOSE           637003000000002004070120130705
1017658902CASTILLO REYES SAUL ALFONSO   637003000000002004070120130705
1017703334TORRES MATUTE FELIX DANIEL    637003000000002004070120130705
1017849548ARRAIZ  EDIXON TOMAS          637003000000002004070120130705
1017886727BARON MURILLO JONATHAN JAVIER 638002000000002004070120080705
1017921174RIVERO ESTREMOR TONY ALBERTO  638000000000002004070120080705
1017932941CADENA PERTUZ JAIDER JAIR     637000000000002004070120130705
1017941601SUAREZ CARRILLO MANUEL JOSE   638001000000002004070120090705
1017968288DIAZ PINEDA DARWIN ALFONSO    637000000000002004070120130705
1018059732GRANDA GOMEZ YANDY RAQUEL     637001000000002004070120130705
1018061456MIRANDA MEJIAS VICTOR MANUEL  637002000000002004070120130705
1018081375PARODI FLEMIG MIGUEL ANGEL    637000000000002004070120130705
1018148602ARELLANO  CARLOS JOSE         638003000000002004070120080705
1018164625CORTEZ TORREALBA PEDRO JOSE   637000000000002004070120130705
1018194288GARCIA GOUDETT JOSE JAVIER    637002000000002004070120130705
1018369440CAMARIPANO  DANIEL EDUARDO    637002000000002004070120130705
1018553159DIAZ CASTILLO YOANDER FELIPE  637001000000002004070120130705
1019164448PEREZ CADEVILLA GILBERTO JOSE 637002000000002004070120130705
