2108553884AZUAJE INFANTE OLGA BEATRIZ   105001000000002004070520130705
2106160149JAIMES MANORIS JOSE MANUEL    207003000000002004070520090705
2007260987PELLEGRINI TORRES ALESSANDRA  207000000000002004070520120705
2107660149VILLASANA SOJO AYARIS CONCEPCI207000000000002004070520090705
2110007781SABELLI PEREZ HAYDEE ALEJANDRA207000000000002004070520120705
2110277435BRANDT PURROY ISABEL CARLOTA  207001000000002004070520090705
2010974615MARCANO RODRIGUEZ JOSE RAMON  207001000000002004070520120705
2111520041SILVA ROJAS DRIADES YOLITSE   207002000000002004070520120705
2011865352TORRES TORRES ERIC JAVIER     207001000000002004070520120705
2012180148PENA NAVARRO ALBEMARY COROMOTO207000000000002004070520120705
2012315156GONZALEZ MERCADO JORGE RAFAEL 207000000000002004070520120705
2012319521MUNOZ MOTA JESUS ENRIQUE      207001000000002004070520120705
2012517708HERNANDEZ DURAN JOSE DOLORES  207001000000002004070520120705
2012930836ALVAREZ AULAR LIZ KELLY       207001000000002004070520120705
2013113274ROJAS DIAZ MARIA ALEJANDRA    207000000000002004070520120705
2013145378BARRIENTOS QUIROZ DANIEL ALBER207002000000002004070520120705
2013261270SEGOVIA ALVARADO JUAN FRANCISC207004000000002004070520130705
2013353157BETANCOURT GIL IRENE CAROLINA 207001000000002004070520120705
2013372030AREVALO SALON RONY SANDER     207001000000002004070520120705
2113610938VERJEL RODRIGUEZ ROSELYN      207001000000002004070520120705
2013667600PEREIRA SANCHEZ KAREN CRISTINA207001000000002004070520120705
2013693475RUIZ MENDOZA IVONNE AIMARI    207001000000002004070520120705
2014024334COLOMBO ESPANA GABRIELLA ANDRE207001000000002004070520120705
2014079228VARGAS BELTRAN JHONATHAN JOSE 207001000000002004070520120705
2014106730VERA VERA YELITZA COROMOTO    207000000000002004070520120705
2014108299OTERO ESCANDON RAMON ANTONIO  207001000000002004070520120705
2014447343UZCATEGUI PADRON JOSMAG JOSE  207001000000002004070520120705
2014537650MARQUEZ PADILLA CARLOS EMILIO 207000000000002004070520120705
2014584805GONZALEZ SALINAS JOSE ENRIQUE 207000000000002004070520120705
2014585908AGUIRRE ANTEQUERA WILMER ANTON207001000000002004070520120705
2114628369MALDONADO COLINA WLADIMIR LEAN207000000000002004070520120705
2014730040FLORES BECERRA MARIA EUGENIA  207001000000002004070520120705
2014803889CASTILLO MILLAN ALEXIS DE JESU207000000000002004070520120705
2014815213DURAN VERA EFRAIN RAMON       207001000000002004070520120705
2014817851BARRETO REYES CARLOS MANUEL   207000000000002004070520120705
2014925680LOPEZ CRESPO FRANCISCO FELIPE 207000000000002004070520120705
2014953020CASTILLO ORTA FREDDY DANIEL   207000000000002004070520120705
2014991165PENA TORO CARLOS ISAAC        207000000000002004070520120705
2014999612GONZALEZ MORENO JOEL ALEXANDER207000000000002004070520130705
2015000304MARIN ROA LUIS DANIEL         207000000000002004070520120705
2015002696MALAVE MARRERO OMAR FERNANDO  207000000000002004070520120705
2015023492BARRESE BRITO DOUGLAS MIGUEL  207000000000002004070520120705
2015074691JIMENEZ CEPEDA JESUS EDUARDO  207001000000002004070520120705
2015096571AGUILAR AGUILAR LEONCIO ANGEL 207002000000002004070520120705
2015111802MACHADO PEREZ RAFAEL ANGEL    207000000000002004070520120705
2015171639LOPEZ LIZARDO CESAR LEONARDO  207001000000002004070520120705
2015217919SAAVEDRA TIRADO JOSE MANUEL   207000000000002004070520120705
2015230896PEDRIQUE PIERUZZINI CARLOS SIM207000000000002004070520120705
2015453350D SUZE SANTOS CARLOS JOSE     207001000000002004070520120705
2015481913REY GIMENEZ IVAN JESUS ALBERTO207000000000002004070520120705
2015488667BRICENO CHACON JUAN VICENTE   207000000000002004070520120705
2015633521CAMPOS TRAVIESO ROLANDO JOSE  207001000000002004070520120705
2015644751ORDONEZ ROAS ASLHEY SAMUELS   207000000000002004070520120705
2015662089BRICENO CHACON FELIX ALBERTO  207000000000002004070520120705
2015715317SANCHEZ SCOTTI AARON ISAIAS   207000000000002004070520120705
2115734686SCHMUCK MUTTACH ALI GONZALO   207001000000002004070520120705
2015801025BRACHO SULBARAN MARIO VALENTIN207000000000002004070520120705
2015854899VILLALOBOS GIL LUIS EMIRO     207001000000002004070520120705
2015874657CASIQUE HERNANDEZ JEYFREN SABA207001000000002004070520120705
2015907492ESCALANTE LOPEZ RUBEN ALEJANDR207001000000002004070520120705
2015911354PANTOJA ROMERO GUILLERMO MIGUE207000000100002005070520130705
2015916227GARABAN GARCIAS ROBERT RAIMUND207001000000002004070520120705
2015931281MENDOZA BLANCO MARQUES ALFREDO207001000000002004070520120705
2015951156SALAZAR CARLOS ERNESTO        207000000000002004070520120705
2016038280DI GIROLAMO VILLASMIL ARNALDO 207002000000002004070520120705
2016115537SALAMANCA RODRIGUEZ RODOLFO JA207001000000002004070520120705
2116154797ACOSTA DIAZ HERNAN RAUL       207002000000002004070520120705
2116201418GONZALEZ RAMIREZ GIBRAN RICARD207000000000002004070520120705
2116231521VEGAS SANCHEZ VICTOR HUGO     207000000000002004070520120705
2016264688RUSSOTTO GARCIA GIUSEPPE NICOL207000000000002004070520120705
2016284134BARROSO DENIS LUIS MANUEL     207000000000002004070520120705
2116331429ROJAS MORENO ASDRUBAL JOSE    207001000000002004070520120705
2016344834NECOL BUTTAFUOCO LEONARDO NICO207000000000002004070520120705
2016869355PATETE ESCALONA JOSE ERNESTO  207000000000002004070520120705
2012912811MADRIZ ESCALONA HECTOR JOSE   208001000000002004070520101203
2012916100VARGAS MARTINEZ WLADIMIR JOSE 208002000000002004070520101203
2012917252REVILLA HERNANDEZ CESAR ENRIQU208001000000002004070520110705
2013043420SANDOVAL HEREDIA FREDDY EMILIO208001000000002004070520110705
2013070589QUINTERO FLORES JACK HELLER   208001000000002004070520101203
2113193612PEDRE FERNANDEZ ROSSANA HERMIN208000000000002004070520101203
2013230260ARELLANO ANGARITA RAUL        208003000000002004070520070705
2013368863CONA TAPIQUEN LUIS ALFREDO    208001000000002004070520101203
2013406084LIMA TORRES GERALDINE         208002000000002004070520101203
2013519174BUONPENSIERI MANCINI MIGUELANG208000000000002004070520101203
2013579880ARIAS MARTINEZ PEDRO ESTEBAN  208002000000002004070520101203
2013588000BOYER ESCOBAR HERMES ALEJANDRO208000000000002004070520101203
2013602122SALAZAR CORREA JOSELINE DEL VA208002000000002004070520101203
2013602170SANCHEZ ORTEGA MILEIDA MARGARI208002000000002004070520101203
2013636118MARQUEZ SUAREZ MARCOS ANTONIO 208002000000002004070520101203
2113642049DIAZ APARICIO LARRY DEBLIN    208002000000002004070520101203
2113680634HERNANDEZ RODRIGUEZ GRECHY DEL208000000000002004070520101203
2013828774AROCHA JIMENEZ PASTOR JOSE    208002000000002004070520131213
2113901214JORDAN ALVAREZ YORVIS ANTONIO 208000000000002004070520101203
2113928481BERBESI BUSTAMANTE HERMES JOSE208000000000002004070520101203
2113972604RUIZ SIGILFREDO JOSE          208000000000002004070520101203
2014017234MORALES YOHAM RAFAEL          208000000000002004070520101203
2014049478ARREAZA ROMERO JUAN CARLOS    208002000000002004070520101203
2014065627GOMEZ HERNANDEZ DICK FRANKLIN 208001000000002004070520110705
2014093735GARCIA PIMENTEL RAMON ALEXIS  208000000000002004070520111203
2014270471OBREGON BRICENO DARWIN ENRIQUE208000000000002004070520101203
2014314080RODRIGUEZ AZNARAN MAYERTLIZ MA208001000000002004070520101203
2014330634ESPINOZA REYES ABRAHAN JOSE   208000000000002004070520110705
2014426810RODRIGUEZ GARCIA ALEXI RAMON  208003000000002004070520101203
2014429629DIAZ MARION DEL MAR           208002000000002004070520101203
2014495387CASTRO MORENO RAFAEL ESMIL    208001000000002004070520110705
2114532506TOVAR OSORIO LUZ MARINA CLARET208001000000002004070520101203
2014533539TORRES PENA GILBERTT ANTONIO  208000000000002004070520110705
2014548871BOSCAN LOPEZ ESMERALDA DEL VAL208002000000002004070520101203
2014568881FAGUNDEZ MEJIAS FELIX JOSE    208000000000002004070520110705
2014701658GARCIA SUAREZ ELIDA COROMOTO  208001000000002004070520101203
2114768093PETIT PEREZ JONH DARVI        208001000000002004070520101203
2014787775PERNIA ROMERO ULISES          208001000000002004070520101203
2014801396GONZALEZ REY LARRYN JESUS     208001000000002004070520101203
2014834678RODRIGUEZ CHINCHILLA ELIS MANU208000000000002004070520101203
2114849397MORENO BARRIOS KARELYS AMADA  208003000000002004070520101203
2014933856AVILA RAMIREZ MARIANNY YISNETH208002000000002004070520101203
2014935368COLINA CORREA JESUS OSWALDO   208001000000002004070520101203
2114966819MARQUEZ BARRIOS DENIZ EDUARDO 208000000000002004070520101203
2014973346ECHENIQUE RODRIGUEZ YIM    KEL208000000000002004070520101203
2114982603ZAMBRANO GUDINO JOSE ALEXANDER208001000000002004070520101203
2014989236BRAVO CARRILLO YENNY JUDITH   208001000000002004070520101203
2014995986DURAN MARQUEZ HENRRY ALEXIS   208001000000002004070520101203
2014999098PEREZ TOVAR EDUIN RAIMUNDO    208001000000002004070520101203
2015063477SILVA GARCIA RENNY OTONIEL    208001000000002004070520101203
2115091525CEDENO PINERO YOLIMAR DEL VALL208001000000002004070520101203
2015121967HUERGO BARON CARLOS ALBERTO   208002000000002004070520101203
2015122302HERRERA GUEVARA GREGORIO ALEXA208001000000002004070520110705
2015126488VILLASANA LOPEZ ROBERT SEGUNDO208002000000002004070520101203
2015135867CARRENO LLERENA DANIEL DARIO  208001000000002004070520110705
2015146033ESPINOZA GALLARDO ANAIRO JOSE 208005000000002004070520131213
2015199520BRITO ESPINOSA RICHARD JOSE   208003000000002004070520101203
2015225463ALBUJAR SANCHEZ YASBELIS CAROL208001000000002004070520101203
2015226154NIEVES CORONADO YESEINA MARIA 208003000000002004070520101203
2015227685DEWUENDT FANEITES NAIROBI CORO208000000000002004070520101203
2115242042PLATA RODRIGUEZ RITHMARY DEL C208000000000002004070520101203
2015244235MARTINEZ MATA JOSE RAMON      208001000000002004070520101203
2015304454MORALES REYES LUZBEIDA ELENA  208002000000002004070520110705
2115327918ESCALONA YEPEZ BRANDOL ANGEL  208001000000002004070520101203
2015341598ESCALONA RODRIGUEZ JOSE FERNAN208001000000002004070520101203
2015377189FERNANDEZ TERAN MIRLEY DEL CAR208000000000002004070520101203
2015382283OJEDA AGUILAR ELIZABETH CAROLI208002000000002004070520101203
2015422773VARGAS GRANADOS AGUSTIN JOSE  208001000000002004070520110705
2015444778VASQUEZ GARCIA EDGARDO JOSE   208001000000002004070520101203
2015498814OVALLES GUANCHEZ EDINSON      208002000000002004070520101203
2115529284BOHORQUEZ LOZADA HECTOR ENRIQU208001000000002004070520101203
2015538268NIETO ANGULO RICHARD NOSLEN   208001000000002004070520070705
2015545148PACHECO HERNANDEZ BENJAMIN    208001000000002004070520101203
2115579997LINARES   CARLOS EDUARDO      208001000000002004070520101203
2015642893ORONOZ MANRIQUEZ ISRAEL       208001000000002004070520101203
2015645051BALLESTERO PALACIOS DEONARDO A208001000000002004070520101203
2015656464GONZALEZ DOMINGUEZ RHONNY ENOC208001000000002004070520101203
2015681739YSAMBERTT BERMUDEZ EDUAR ANTON208001000000002004070520110705
2015696011OSORIO RONDON FREDDY JACKAMIRO208001000000002004070520101203
2015795593RODRIGUEZ FONSECA LUIS ALBERTO208000000000002004070520070705
2015858375USECHE VIVAS ERNESTO ALEXANDER208000000000002004070520110705
2015901987RODRIGUEZ DEPABLOS CESAR AUGUS208000000000002004070520101203
2015983397ALVARADO PÉREZ AZZIS  EMMANUEL208000000000002004070520111203
2116022909ORAMAS MUNOZ GERARDO JOSE     208001000000002004070520101203
2116027663CASTILLO MUJICA JOHANNA  MILAG208000000000002004070520101203
2016053524AMARO PINTO JOSÉ GREGORIO     208000000000002004070520111203
2016075126HONG PEREZ PAOLA YUBISAY      208001000000002004070520101203
2016122207PARRA DIAZ JOSE GREGORIO      208000000000002004070520101203
2016129135QUIARO RODRIGUEZ REYGERD ANTON208001000000002004070520101203
2116268766CARRILLO COLMENARES LUIS ENRIQ208000000000002004070520101203
2116283448BLANCO MERLO CEYLAN EDUARDO   208000000000002004070520101203
2016285677ACOSTA BELLORIN BRENDERSON JUA208001000000002004070520101203
2016292892AGUILAR BRICENO HERBERT JOSE  208001000000002004070520101203
2016326797SOLER VALERA JOHAN JOSE       208001000000002004070520101203
2016508566PINO FERNANDEZ JOSE ALBERTO   208000000000002004070520110705
2016529712GARCIA RODRIGUEZ RAFAEL       208002000000002004070520101203
2116574587QUINTERO LOPEZ REBECA MAIYIBET208001000000002004070520101203
2016594599PINEDA QUICENO YENNY MARITHZA 208000000000002004070520101203
2016760525JIMENEZ CARRILLO ANDRIW JOE   208003000000002004070520101203
2117042865ROJAS ROJAS FRANCISMAR DE LA C208001000000002004070520101203
2117250588JIMENEZ HIDALGO YAKSURIS MARYO208001000000002004070520101203
2017642288RIVERO GONZALEZ ALBERTO JOSE  208001000000002004070520110705
2015736769URDANETA DELGADO ENRIQUE REINA638001000000002004070520090705
2017686084CASTILLO VASQUEZ ANTONIO JOSE 637001000000002004070520130705
2017388445GONZALEZ JUAN CARLOS          637001000000002004070520130705
2017035847ALVARADO ARIAS JOSE FERNANDO  637000000000002004070520130705
2013672240ROZO CONTRERAS ANDRES JOSE    209001000000002004070520130101
2015088765URBINA MORENO PEDRO FABIAN    209001000000002004070520130101
2015125534MAIZ CEBALLOS LUIS GERARDO    209001000000002004070520110518
2015374935QUINONES VILLARREAL ANDERSON J209001000000002004070520120101
2015570229PRONIO FREILES DAVID AMERICO  209001000000002004070520120101
2015980240SANCHEZ DIAZ JOSE ANGEL       209002000000002004070520110518
2016128377GOTO CALANCHE ENDERSON JHOJAN 209003000000002004070520120101
2016447682JIMENEZ JIMENEZ WARNER ALEXAND209002000000002004070520110518
2016452189GONZALEZ GONZALEZ PETER MANUEL209001000000002004070520130101
2016519530GUTIERREZ SANCHEZ FRANKLIN ANT209000000000002004070520130101
2017056737SANCHEZ COLMENARES JESUS ENRIQ209002000000002004070520120101
2016091383CISNEROS RENGIFO HARRISON JAVI317000000000002004070520040705
2012357762REINOSO RODRIGUEZ ROBERT ALEXI637002000000002004070520130705
2012532620CARPIO MONTOYA PHILLIP ANTONIO637003000000002004070520130705
2012981385MENDEZ QUERALES JOSE GREGORIO 637002000000002004070520130705
2113373315CORCEGA HERNANDEZ GUEYBER JOSE637002000000002004070520130705
2013571506RODRIGUEZ PACHECO ALVIN ANTONI637003000000002004070520130705
2013683211CEGARRA RUBIO DANIEL OCTAVIO  637002000000002004070520130705
2113980969RODRIGUEZ SUAREZ ADON GERMAN  637004000000002004070520130705
2014044807GOMEZ BOGARIN RICHARD JOSE    637003000000002004070520130705
2014103038RIERA MUJICA GERARDO AGUSTIN  637001000000002004070520130705
2014388171JASPE QUINTANA HENRY JOHAN    637003000000002004070520130705
2014500701MONTILLA RONDON FRANCISCO RAFA637001000000002004070520130705
2014615897ARAY WILBER ALI               637003000000002004070520130705
2114624154GUERRERO URBINA HOFFMANN ALFON637001000000002004070520130705
2014701149PINA RIVAS JHONNY WLADIMIR    637001000000002004070520130705
2014717836BONILLO ZABALA MARTIN JOSE    637001000000002004070520130705
2014742105AVILA VILLA ENGLI ENRIQUE     637003000000002004070520130705
2114844722ARAUJO POVEDA EDWUIN DAVID    637003000000002004070520130705
2014927640PENA ALVAREZ JORFAN JEFERSON  637001000000002004070520130705
2014975389JAIMES ACEVEDO EBERT          637000000000002004070520130705
2114980786YEPEZ GONZALEZ RICHARD JOSE   637001000000002004070520130705
2015067158ROMERO VARGAS JESUS ALBERTO   637001000000002004070520130705
2015089132FERMIN PLAZA JULIO CESAR      637001000000002004070520130705
2015101823GIL CANA MOISES ELIAS         637001000000002004070520130705
2015113581RENGEL   LUIS RAFAEL          637001000000002004070520130705
2015122478HERNANDEZ CEDENO JOSE YONNEL  637001000000002004070520130705
2015129071NARANJO LANDAETA KEIFOR ENRIQU637003000000002004070520130705
2015140833NAVAS ZAMBRANO YAMIL JESUS    637003000000002004070520130705
2015142548PIRELA HERRERA ADORVIS JOSE   637002000000002004070520130705
2015227914TORREALBA ROSSELL JOSE MANUEL 637002000000002004070520130705
2015258819ROMAN ROMERO YINO GERARDO     637001000000002004070520130705
2015274941PINEDA RAMIREZ ANGEL ANTONIO  637001000000002004070520130705
2015344293COVA MARTINEZ DOMINGO JOSE    637001000000002004070520130705
2015367364GUERRIERI BOYER GIOVANNI GIOBE637001000000002004070520130705
2015420722GARCIA MELENDEZ FREDDY IGNACIO637001000000002004070520130705
2015431463PAREDES CASTELLANO JOSE GREGOR637002000000002004070520130705
2015459058ACOSTA CHIRINOS VICTOR SIMON  637001000000002004070520130705
2015467731CABRERA ESPINOZA JHONNY DE JES637000000000002004070520130705
2015467801LOPEZ RONDON JOSE GREGORIO    637002000000002004070520130705
2015505908ABOGADO JOSE RAFAEL           637002000000002004070520130705
2015602927GONZALEZ CARRASCO FRANCISCO SE637002000000002004070520130705
2015649894FRANCO GUEDEZ NESTOR EDUARDO  637000000000002004070520130705
2015705782CASTILLO PENA FRANCISCO ANIBAL637002000000002004070520130705
2015724120GARCIA MENDEZ CLIMACO JESUS   637003000000002004070520130705
2015873036GARCIA DI LIZIO FELIX RAFAEL  637001000000002004070520130705
2015905995BERMUDES WILFREDO RAMON       637001000000002004070520130705
2015971112ALBORNOZ SARLI ELVIS RAUL     637001000000002004070520130705
2016011774SALAS CARRASQUEL CARLOS WILKAN637002000000002004070520130705
2016313632CARVAJAL CARVAJAL LUIS ALBERTO637001000000002004070520130705
2016584562ACOSTA SUAREZ EDUARDO  EMIRTO 637002000000002004070520130705
2016596390DONAH NOEL                    637000000000002004070520130705
2016843651GARATE GONZALEZ JAIME EDUVIGES637001000000002004070520130705
2016845280CARABALLO QUIJADA WILFRED ESTE637001000000002004070520130705
2016851269TORRES ROSALES PABLO JESUS    637001000000002004070520130705
2017096566ALBORNOZ CASTILLO DIEGO       638002000000002004070520080705
2013374086VALENZUELA HERNANDEZ LUIS ALBE638003000000002004070520080705
2014044379FLORES DELGADO ROBERT JOSE    638002000000002004070520090705
2014483044REYES RODRIGUEZ JEAN  FRANK AL638001000000002004070520080705
2014787692CARRILLO VILLALBA LEONARDO JOS638002000000002004070520080705
2015473260VASQUEZ MUJICA WILSON RICARDO 638000000000002004070520080705
2015497110GUILLEN OCHOA ALVIS JESUS     638002000000002004070520080705
2015500640CARRASQUEL GIL JESUS EDGARDO  638000000000002004070520090705
2115544785BRAVO QUEZADA PEDRO MIGUEL    638003000000002004070520080705
2015810560ORTIZ CORTEZ ENDER ALEXIS     638002000000002004070520080705
2015889590GALLARDO HERNANDEZ RONALD     638001000000002004070520090705
2015970628POLANCO RODRIGUEZ JACKSON ALEX638001000000002004070520080705
2016000520DOMINGUEZ ESPINOZA GILBERTO EN638000000000002004070520080705
2116793714MEDINA   NAUDI COROMOTO       638001000000002004070520080705
